{
  "contractName": "Voting",
  "abi": [
    {
      "inputs": [],
      "stateMutability": "nonpayable",
      "type": "constructor"
    },
    {
      "anonymous": false,
      "inputs": [
        {
          "indexed": false,
          "internalType": "uint256",
          "name": "_options",
          "type": "uint256"
        },
        {
          "indexed": false,
          "internalType": "uint256",
          "name": "_deley",
          "type": "uint256"
        },
        {
          "indexed": false,
          "internalType": "uint256",
          "name": "_duration",
          "type": "uint256"
        }
      ],
      "name": "NewVoting",
      "type": "event"
    },
    {
      "anonymous": false,
      "inputs": [
        {
          "indexed": false,
          "internalType": "address",
          "name": "_from",
          "type": "address"
        },
        {
          "indexed": false,
          "internalType": "string",
          "name": "_to",
          "type": "string"
        }
      ],
      "name": "Voted",
      "type": "event"
    },
    {
      "inputs": [],
      "name": "admin",
      "outputs": [
        {
          "internalType": "address",
          "name": "",
          "type": "address"
        }
      ],
      "stateMutability": "view",
      "type": "function"
    },
    {
      "inputs": [],
      "name": "creatingTime",
      "outputs": [
        {
          "internalType": "uint256",
          "name": "",
          "type": "uint256"
        }
      ],
      "stateMutability": "view",
      "type": "function"
    },
    {
      "inputs": [],
      "name": "duration",
      "outputs": [
        {
          "internalType": "uint256",
          "name": "",
          "type": "uint256"
        }
      ],
      "stateMutability": "view",
      "type": "function"
    },
    {
      "inputs": [
        {
          "internalType": "string",
          "name": "",
          "type": "string"
        }
      ],
      "name": "findind",
      "outputs": [
        {
          "internalType": "uint256",
          "name": "",
          "type": "uint256"
        }
      ],
      "stateMutability": "view",
      "type": "function"
    },
    {
      "inputs": [
        {
          "internalType": "address",
          "name": "",
          "type": "address"
        }
      ],
      "name": "isVoted",
      "outputs": [
        {
          "internalType": "bool",
          "name": "",
          "type": "bool"
        }
      ],
      "stateMutability": "view",
      "type": "function"
    },
    {
      "inputs": [
        {
          "internalType": "uint256",
          "name": "",
          "type": "uint256"
        }
      ],
      "name": "peopleVoted",
      "outputs": [
        {
          "internalType": "address",
          "name": "",
          "type": "address"
        }
      ],
      "stateMutability": "view",
      "type": "function"
    },
    {
      "inputs": [],
      "name": "startDelay",
      "outputs": [
        {
          "internalType": "uint256",
          "name": "",
          "type": "uint256"
        }
      ],
      "stateMutability": "view",
      "type": "function"
    },
    {
      "inputs": [
        {
          "internalType": "uint256",
          "name": "",
          "type": "uint256"
        }
      ],
      "name": "votingOptions",
      "outputs": [
        {
          "internalType": "string",
          "name": "",
          "type": "string"
        }
      ],
      "stateMutability": "view",
      "type": "function"
    },
    {
      "inputs": [
        {
          "internalType": "string[]",
          "name": "_options",
          "type": "string[]"
        },
        {
          "internalType": "uint256",
          "name": "_startDelay",
          "type": "uint256"
        },
        {
          "internalType": "uint256",
          "name": "_duration",
          "type": "uint256"
        }
      ],
      "name": "newVoting",
      "outputs": [],
      "stateMutability": "nonpayable",
      "type": "function"
    },
    {
      "inputs": [
        {
          "internalType": "string",
          "name": "_option",
          "type": "string"
        }
      ],
      "name": "giveVote",
      "outputs": [],
      "stateMutability": "nonpayable",
      "type": "function"
    },
    {
      "inputs": [],
      "name": "showResult",
      "outputs": [
        {
          "internalType": "uint256[]",
          "name": "",
          "type": "uint256[]"
        },
        {
          "internalType": "string[]",
          "name": "",
          "type": "string[]"
        }
      ],
      "stateMutability": "nonpayable",
      "type": "function"
    },
    {
      "inputs": [],
      "name": "showOptions",
      "outputs": [
        {
          "internalType": "string[]",
          "name": "",
          "type": "string[]"
        }
      ],
      "stateMutability": "nonpayable",
      "type": "function"
    }
  ],
  "bytecode": "0x608060405234801561001057600080fd5b5033600660006101000a81548173ffffffffffffffffffffffffffffffffffffffff021916908373ffffffffffffffffffffffffffffffffffffffff160217905550611b05806100616000396000f3fe608060405234801561001057600080fd5b50600436106100b45760003560e01c80639f304df7116100715780639f304df71461016a578063c1688dd31461019a578063c420bf48146101ca578063cbff75cb146101e8578063dff67f6b14610218578063f851a44014610248576100b4565b8063040cb859146100b95780630fb5a6b4146100d75780631c85dd45146100f557806333ee3131146101115780635a46e5d51461013057806395c2dbcd1461014e575b600080fd5b6100c1610266565b6040516100ce9190610e7b565b60405180910390f35b6100df61026c565b6040516100ec9190610e7b565b60405180910390f35b61010f600480360381019061010a9190611102565b610272565b005b610119610476565b604051610127929190611379565b60405180910390f35b6101386105aa565b60405161014591906113b0565b60405180910390f35b610168600480360381019061016391906113d2565b610683565b005b610184600480360381019061017f91906113d2565b61094e565b6040516101919190610e7b565b60405180910390f35b6101b460048036038101906101af919061141b565b61097c565b6040516101c19190611489565b60405180910390f35b6101d26109bb565b6040516101df9190610e7b565b60405180910390f35b61020260048036038101906101fd91906114d0565b6109c1565b60405161020f9190611518565b60405180910390f35b610232600480360381019061022d919061141b565b6109e1565b60405161023f919061157d565b60405180910390f35b610250610a8d565b60405161025d9190611489565b60405180910390f35b60035481565b60045481565b33600660009054906101000a900473ffffffffffffffffffffffffffffffffffffffff1673ffffffffffffffffffffffffffffffffffffffff168173ffffffffffffffffffffffffffffffffffffffff1614610303576040517f08c379a00000000000000000000000000000000000000000000000000000000081526004016102fa906115eb565b60405180910390fd5b61030b610ab3565b60005b84518110156103f357600285828151811061032c5761032b61160b565b5b602002602001015190806001815401808255809150506001900390600052602060002001600090919091909150908051906020019061036c929190610cf8565b5060018161037a9190611669565b600886838151811061038f5761038e61160b565b5b60200260200101516040516103a491906116fb565b90815260200160405180910390208190555060056000908060018154018082558091505060019003906000526020600020016000909190919091505580806103eb90611712565b91505061030e565b5082600381905550816004819055506000600960006101000a81548160ff021916908360028111156104285761042761175b565b5b0217905550426007819055507f6f7178ad9cfa2e34529d451561db801d03c838984d96e595957ac5854205af57845184846040516104689392919061178a565b60405180910390a150505050565b60608060056002818054806020026020016040519081016040528092919081815260200182805480156104c857602002820191906000526020600020905b8154815260200190600101908083116104b4575b5050505050915080805480602002602001604051908101604052809291908181526020016000905b8282101561059c57838290600052602060002001805461050f906117f0565b80601f016020809104026020016040519081016040528092919081815260200182805461053b906117f0565b80156105885780601f1061055d57610100808354040283529160200191610588565b820191906000526020600020905b81548152906001019060200180831161056b57829003601f168201915b5050505050815260200190600101906104f0565b505050509050915091509091565b60606002805480602002602001604051908101604052809291908181526020016000905b8282101561067a5783829060005260206000200180546105ed906117f0565b80601f0160208091040260200160405190810160405280929190818152602001828054610619906117f0565b80156106665780601f1061063b57610100808354040283529160200191610666565b820191906000526020600020905b81548152906001019060200180831161064957829003601f168201915b5050505050815260200190600101906105ce565b50505050905090565b80600060088260405161069691906116fb565b908152602001604051809103902054116106e5576040517f08c379a00000000000000000000000000000000000000000000000000000000081526004016106dc9061186e565b60405180910390fd5b33600015156000808373ffffffffffffffffffffffffffffffffffffffff1673ffffffffffffffffffffffffffffffffffffffff16815260200190815260200160002060009054906101000a900460ff16151514610778576040517f08c379a000000000000000000000000000000000000000000000000000000000815260040161076f906118da565b60405180910390fd5b610780610bfa565b600160028111156107945761079361175b565b5b600960009054906101000a900460ff1660028111156107b6576107b561175b565b5b146107f6576040517f08c379a00000000000000000000000000000000000000000000000000000000081526004016107ed90611946565b60405180910390fd5b60016000803373ffffffffffffffffffffffffffffffffffffffff1673ffffffffffffffffffffffffffffffffffffffff16815260200190815260200160002060006101000a81548160ff0219169083151502179055506001339080600181540180825580915050600190039060005260206000200160009091909190916101000a81548173ffffffffffffffffffffffffffffffffffffffff021916908373ffffffffffffffffffffffffffffffffffffffff1602179055506001600560016008866040516108c691906116fb565b9081526020016040518091039020546108df9190611966565b815481106108f0576108ef61160b565b5b9060005260206000200160008282546109099190611669565b925050819055507fcb6783276e8a4347387036bbfea000268f0a4b1f8c46ac79980609f2af8d2acd338460405161094192919061199a565b60405180910390a1505050565b6008818051602081018201805184825260208301602085012081835280955050505050506000915090505481565b6001818154811061098c57600080fd5b906000526020600020016000915054906101000a900473ffffffffffffffffffffffffffffffffffffffff1681565b60075481565b60006020528060005260406000206000915054906101000a900460ff1681565b600281815481106109f157600080fd5b906000526020600020016000915090508054610a0c906117f0565b80601f0160208091040260200160405190810160405280929190818152602001828054610a38906117f0565b8015610a855780601f10610a5a57610100808354040283529160200191610a85565b820191906000526020600020905b815481529060010190602001808311610a6857829003601f168201915b505050505081565b600660009054906101000a900473ffffffffffffffffffffffffffffffffffffffff1681565b60005b600180549050811015610b625760008060018381548110610ada57610ad961160b565b5b9060005260206000200160009054906101000a900473ffffffffffffffffffffffffffffffffffffffff1673ffffffffffffffffffffffffffffffffffffffff1673ffffffffffffffffffffffffffffffffffffffff16815260200190815260200160002060006101000a81549060ff02191690558080610b5a90611712565b915050610ab6565b5060016000610b719190610d7e565b60005b600280549050811015610bd357600860028281548110610b9757610b9661160b565b5b90600052602060002001604051610bae9190611a5e565b9081526020016040518091039020600090558080610bcb90611712565b915050610b74565b5060056000610be29190610d9f565b60026000610bf09190610dc0565b6000600781905550565b42603c600354610c0a9190611a75565b600754610c179190611669565b11158015610c595750603c600454610c2f9190611a75565b603c600354610c3e9190611a75565b600754610c4b9190611669565b610c559190611669565b4211155b15610c8e576001600960006101000a81548160ff02191690836002811115610c8457610c8361175b565b5b0217905550610cf6565b603c600454610c9d9190611a75565b603c600354610cac9190611a75565b600754610cb99190611669565b610cc39190611669565b4210610cf5576002600960006101000a81548160ff02191690836002811115610cef57610cee61175b565b5b02179055505b5b565b828054610d04906117f0565b90600052602060002090601f016020900481019282610d265760008555610d6d565b82601f10610d3f57805160ff1916838001178555610d6d565b82800160010185558215610d6d579182015b82811115610d6c578251825591602001919060010190610d51565b5b509050610d7a9190610de1565b5090565b5080546000825590600052602060002090810190610d9c9190610de1565b50565b5080546000825590600052602060002090810190610dbd9190610de1565b50565b5080546000825590600052602060002090810190610dde9190610dfe565b50565b5b80821115610dfa576000816000905550600101610de2565b5090565b5b80821115610e1e5760008181610e159190610e22565b50600101610dff565b5090565b508054610e2e906117f0565b6000825580601f10610e405750610e5f565b601f016020900490600052602060002090810190610e5e9190610de1565b5b50565b6000819050919050565b610e7581610e62565b82525050565b6000602082019050610e906000830184610e6c565b92915050565b6000604051905090565b600080fd5b600080fd5b600080fd5b6000601f19601f8301169050919050565b7f4e487b7100000000000000000000000000000000000000000000000000000000600052604160045260246000fd5b610ef882610eaf565b810181811067ffffffffffffffff82111715610f1757610f16610ec0565b5b80604052505050565b6000610f2a610e96565b9050610f368282610eef565b919050565b600067ffffffffffffffff821115610f5657610f55610ec0565b5b602082029050602081019050919050565b600080fd5b600080fd5b600067ffffffffffffffff821115610f8c57610f8b610ec0565b5b610f9582610eaf565b9050602081019050919050565b82818337600083830152505050565b6000610fc4610fbf84610f71565b610f20565b905082815260208101848484011115610fe057610fdf610f6c565b5b610feb848285610fa2565b509392505050565b600082601f83011261100857611007610eaa565b5b8135611018848260208601610fb1565b91505092915050565b600061103461102f84610f3b565b610f20565b9050808382526020820190506020840283018581111561105757611056610f67565b5b835b8181101561109e57803567ffffffffffffffff81111561107c5761107b610eaa565b5b8086016110898982610ff3565b85526020850194505050602081019050611059565b5050509392505050565b600082601f8301126110bd576110bc610eaa565b5b81356110cd848260208601611021565b91505092915050565b6110df81610e62565b81146110ea57600080fd5b50565b6000813590506110fc816110d6565b92915050565b60008060006060848603121561111b5761111a610ea0565b5b600084013567ffffffffffffffff81111561113957611138610ea5565b5b611145868287016110a8565b9350506020611156868287016110ed565b9250506040611167868287016110ed565b9150509250925092565b600081519050919050565b600082825260208201905092915050565b6000819050602082019050919050565b6111a681610e62565b82525050565b60006111b8838361119d565b60208301905092915050565b6000602082019050919050565b60006111dc82611171565b6111e6818561117c565b93506111f18361118d565b8060005b8381101561122257815161120988826111ac565b9750611214836111c4565b9250506001810190506111f5565b5085935050505092915050565b600081519050919050565b600082825260208201905092915050565b6000819050602082019050919050565b600081519050919050565b600082825260208201905092915050565b60005b8381101561129557808201518184015260208101905061127a565b838111156112a4576000848401525b50505050565b60006112b58261125b565b6112bf8185611266565b93506112cf818560208601611277565b6112d881610eaf565b840191505092915050565b60006112ef83836112aa565b905092915050565b6000602082019050919050565b600061130f8261122f565b611319818561123a565b93508360208202850161132b8561124b565b8060005b85811015611367578484038952815161134885826112e3565b9450611353836112f7565b925060208a0199505060018101905061132f565b50829750879550505050505092915050565b6000604082019050818103600083015261139381856111d1565b905081810360208301526113a78184611304565b90509392505050565b600060208201905081810360008301526113ca8184611304565b905092915050565b6000602082840312156113e8576113e7610ea0565b5b600082013567ffffffffffffffff81111561140657611405610ea5565b5b61141284828501610ff3565b91505092915050565b60006020828403121561143157611430610ea0565b5b600061143f848285016110ed565b91505092915050565b600073ffffffffffffffffffffffffffffffffffffffff82169050919050565b600061147382611448565b9050919050565b61148381611468565b82525050565b600060208201905061149e600083018461147a565b92915050565b6114ad81611468565b81146114b857600080fd5b50565b6000813590506114ca816114a4565b92915050565b6000602082840312156114e6576114e5610ea0565b5b60006114f4848285016114bb565b91505092915050565b60008115159050919050565b611512816114fd565b82525050565b600060208201905061152d6000830184611509565b92915050565b600082825260208201905092915050565b600061154f8261125b565b6115598185611533565b9350611569818560208601611277565b61157281610eaf565b840191505092915050565b600060208201905081810360008301526115978184611544565b905092915050565b7f696e76616c696420706572736f6e000000000000000000000000000000000000600082015250565b60006115d5600e83611533565b91506115e08261159f565b602082019050919050565b60006020820190508181036000830152611604816115c8565b9050919050565b7f4e487b7100000000000000000000000000000000000000000000000000000000600052603260045260246000fd5b7f4e487b7100000000000000000000000000000000000000000000000000000000600052601160045260246000fd5b600061167482610e62565b915061167f83610e62565b9250827fffffffffffffffffffffffffffffffffffffffffffffffffffffffffffffffff038211156116b4576116b361163a565b5b828201905092915050565b600081905092915050565b60006116d58261125b565b6116df81856116bf565b93506116ef818560208601611277565b80840191505092915050565b600061170782846116ca565b915081905092915050565b600061171d82610e62565b91507fffffffffffffffffffffffffffffffffffffffffffffffffffffffffffffffff8214156117505761174f61163a565b5b600182019050919050565b7f4e487b7100000000000000000000000000000000000000000000000000000000600052602160045260246000fd5b600060608201905061179f6000830186610e6c565b6117ac6020830185610e6c565b6117b96040830184610e6c565b949350505050565b7f4e487b7100000000000000000000000000000000000000000000000000000000600052602260045260246000fd5b6000600282049050600182168061180857607f821691505b6020821081141561181c5761181b6117c1565b5b50919050565b7f6e6f7420612076616c6964206f7074696f6e0000000000000000000000000000600082015250565b6000611858601283611533565b915061186382611822565b602082019050919050565b600060208201905081810360008301526118878161184b565b9050919050565b7f616c726561647920766f74656400000000000000000000000000000000000000600082015250565b60006118c4600d83611533565b91506118cf8261188e565b602082019050919050565b600060208201905081810360008301526118f3816118b7565b9050919050565b7f6e6f7420766f74696e672074696d650000000000000000000000000000000000600082015250565b6000611930600f83611533565b915061193b826118fa565b602082019050919050565b6000602082019050818103600083015261195f81611923565b9050919050565b600061197182610e62565b915061197c83610e62565b92508282101561198f5761198e61163a565b5b828203905092915050565b60006040820190506119af600083018561147a565b81810360208301526119c18184611544565b90509392505050565b60008190508160005260206000209050919050565b600081546119ec816117f0565b6119f681866116bf565b94506001821660008114611a115760018114611a2257611a55565b60ff19831686528186019350611a55565b611a2b856119ca565b60005b83811015611a4d57815481890152600182019150602081019050611a2e565b838801955050505b50505092915050565b6000611a6a82846119df565b915081905092915050565b6000611a8082610e62565b9150611a8b83610e62565b9250817fffffffffffffffffffffffffffffffffffffffffffffffffffffffffffffffff0483118215151615611ac457611ac361163a565b5b82820290509291505056fea2646970667358221220a17e3956a20df5c196809e3e564b69944117e9fed44ca520881aa926b423e1df64736f6c634300080b0033",
  "immutableReferences": {},
  "source": "\r\n// SPDX-License-Identifier: MIT\r\npragma solidity >=0.4.22 <0.9.0;\r\n\r\ncontract Voting{\r\n\r\nmapping(address=>bool) public isVoted;\r\naddress [] public peopleVoted;\r\n\r\nstring []public votingOptions;\r\nuint256 public startDelay;\r\nuint256 public duration;\r\n\r\nuint256 []  private resultArr;\r\naddress public admin;\r\nuint256 public creatingTime;\r\n\r\n\r\nmapping (string=>uint) public findind;   \r\nenum Stages{wait,voting,result}\r\nStages stage;\r\n\r\n\r\n\r\nconstructor() public {\r\n admin=msg.sender;\r\n \r\n}\r\n\r\nevent Voted(address _from,string _to);\r\nevent NewVoting(uint256 _options,uint256 _deley,uint256 _duration);\r\n\r\n\r\n\r\n\r\n\r\nfunction updateTime() internal\r\n{\r\nif(creatingTime+startDelay*1 minutes<=block.timestamp && block.timestamp<=creatingTime+startDelay*1 minutes+duration*1 minutes)\r\n{\r\n stage=Stages.voting;\r\n}\r\n\r\nelse if(block.timestamp>=creatingTime+startDelay*1 minutes+duration*1 minutes)\r\n{\r\n stage=Stages.result;\r\n}\r\n}\r\n\r\n\r\nmodifier onlyByAdmin(address user)\r\n{\r\n require(user==admin,'invalid person');\r\n _;\r\n}\r\n\r\n\r\n\r\nfunction destroyVoting ()internal {\r\nfor(uint i=0;i<peopleVoted.length;i++)\r\n{\r\n delete(isVoted[peopleVoted[i]]);\r\n}\r\n\r\ndelete(peopleVoted);\r\n\r\nfor(uint i=0;i<votingOptions.length;i++)\r\n delete(findind[votingOptions[i]]);\r\ndelete(resultArr);\r\ndelete(votingOptions);\r\n\r\ncreatingTime=0;\r\n}\r\n\r\n\r\n\r\n\r\n\r\nfunction newVoting(string [] memory _options,uint256 _startDelay,uint256 _duration) public onlyByAdmin(msg.sender){\r\ndestroyVoting();\r\n\r\nfor(uint256 i=0;i<_options.length;i++)\r\n{\r\nvotingOptions.push(_options[i]);\r\n findind[_options[i]]=i+1;\r\n resultArr.push(0);\r\n}\r\n\r\nstartDelay=_startDelay;\r\nduration=_duration;\r\nstage=Stages.wait;\r\ncreatingTime=block.timestamp;\r\nemit NewVoting(_options.length,_startDelay,_duration);\r\n}\r\n\r\n\r\nmodifier onlyNonVoted(address user)\r\n{\r\n \r\n require(isVoted[user]==false,'already voted');\r\n _;\r\n}\r\n\r\n\r\nmodifier onlyVotingTime()\r\n{\r\n updateTime();\r\n require(stage==Stages.voting,'not voting time');\r\n _;\r\n}\r\n\r\n\r\n\r\nmodifier correctOptions(string  memory _option )\r\n{\r\n   require(findind[_option]>0,'not a valid option');\r\n _;\r\n}\r\n\r\n\r\nfunction giveVote(string memory _option) public correctOptions(_option)  onlyNonVoted(msg.sender) onlyVotingTime{\r\n   isVoted[msg.sender]=true;\r\n   peopleVoted.push(msg.sender);\r\n   resultArr[findind[_option]-1]+=1;\r\n   emit Voted(msg.sender,_option);\r\n}\r\n\r\n\r\n\r\n\r\nfunction showResult() external   returns(uint256 [] memory,string [] memory){\r\n   \r\n  return (resultArr,votingOptions);\r\n}\r\n\r\nfunction showOptions() external returns(string [] memory)\r\n{\r\n   return votingOptions;\r\n}\r\n\r\n}",
  "sourcePath": "C:\\Users\\hp\\Desktop\\dapps\\election-advanced\\contracts\\Voting.sol",
  "compiler": {
    "name": "solc",
    "version": "0.8.11+commit.d7f03943.Emscripten.clang"
  },
  "schemaVersion": "3.4.4",
  "updatedAt": "2022-04-03T22:50:34.032Z",
  "devdoc": {
    "kind": "dev",
    "methods": {},
    "version": 1
  },
  "userdoc": {
    "kind": "user",
    "methods": {},
    "version": 1
  }
}